{
  "_format": "hh-sol-artifact-1",
  "contractName": "Stud",
  "sourceName": "contracts/Structure.sol",
  "abi": [
    {
      "inputs": [
        {
          "internalType": "uint256",
          "name": "_rollNo",
          "type": "uint256"
        },
        {
          "internalType": "string",
          "name": "_name",
          "type": "string"
        }
      ],
      "stateMutability": "nonpayable",
      "type": "constructor"
    },
    {
      "inputs": [
        {
          "internalType": "uint256",
          "name": "_rollNo",
          "type": "uint256"
        },
        {
          "internalType": "string",
          "name": "_name",
          "type": "string"
        }
      ],
      "name": "change",
      "outputs": [],
      "stateMutability": "nonpayable",
      "type": "function"
    },
    {
      "inputs": [],
      "name": "get",
      "outputs": [
        {
          "components": [
            {
              "internalType": "uint256",
              "name": "rollNo",
              "type": "uint256"
            },
            {
              "internalType": "string",
              "name": "name",
              "type": "string"
            }
          ],
          "internalType": "struct Student",
          "name": "",
          "type": "tuple"
        }
      ],
      "stateMutability": "view",
      "type": "function"
    },
    {
      "inputs": [],
      "name": "s1",
      "outputs": [
        {
          "internalType": "uint256",
          "name": "rollNo",
          "type": "uint256"
        },
        {
          "internalType": "string",
          "name": "name",
          "type": "string"
        }
      ],
      "stateMutability": "view",
      "type": "function"
    }
  ],
  "bytecode": "0x608060405234801561001057600080fd5b50604051610e16380380610e1683398181016040528101906100329190610200565b816000800181905550806000600101908161004d9190610473565b505050610545565b6000604051905090565b600080fd5b600080fd5b6000819050919050565b61007c81610069565b811461008757600080fd5b50565b60008151905061009981610073565b92915050565b600080fd5b600080fd5b6000601f19601f8301169050919050565b7f4e487b7100000000000000000000000000000000000000000000000000000000600052604160045260246000fd5b6100f2826100a9565b810181811067ffffffffffffffff82111715610111576101106100ba565b5b80604052505050565b6000610124610055565b905061013082826100e9565b919050565b600067ffffffffffffffff8211156101505761014f6100ba565b5b610159826100a9565b9050602081019050919050565b60005b83811015610184578082015181840152602081019050610169565b60008484015250505050565b60006101a361019e84610135565b61011a565b9050828152602081018484840111156101bf576101be6100a4565b5b6101ca848285610166565b509392505050565b600082601f8301126101e7576101e661009f565b5b81516101f7848260208601610190565b91505092915050565b600080604083850312156102175761021661005f565b5b60006102258582860161008a565b925050602083015167ffffffffffffffff81111561024657610245610064565b5b610252858286016101d2565b9150509250929050565b600081519050919050565b7f4e487b7100000000000000000000000000000000000000000000000000000000600052602260045260246000fd5b600060028204905060018216806102ae57607f821691505b6020821081036102c1576102c0610267565b5b50919050565b60008190508160005260206000209050919050565b60006020601f8301049050919050565b600082821b905092915050565b6000600883026103297fffffffffffffffffffffffffffffffffffffffffffffffffffffffffffffffff826102ec565b61033386836102ec565b95508019841693508086168417925050509392505050565b6000819050919050565b600061037061036b61036684610069565b61034b565b610069565b9050919050565b6000819050919050565b61038a83610355565b61039e61039682610377565b8484546102f9565b825550505050565b600090565b6103b36103a6565b6103be818484610381565b505050565b5b818110156103e2576103d76000826103ab565b6001810190506103c4565b5050565b601f821115610427576103f8816102c7565b610401846102dc565b81016020851015610410578190505b61042461041c856102dc565b8301826103c3565b50505b505050565b600082821c905092915050565b600061044a6000198460080261042c565b1980831691505092915050565b60006104638383610439565b9150826002028217905092915050565b61047c8261025c565b67ffffffffffffffff811115610495576104946100ba565b5b61049f8254610296565b6104aa8282856103e6565b600060209050601f8311600181146104dd57600084156104cb578287015190505b6104d58582610457565b86555061053d565b601f1984166104eb866102c7565b60005b82811015610513578489015182556001820191506020850194506020810190506104ee565b86831015610530578489015161052c601f891682610439565b8355505b6001600288020188555050505b505050505050565b6108c2806105546000396000f3fe608060405234801561001057600080fd5b50600436106100415760003560e01c80636cc014de146100465780636d4ce63c14610065578063c75226ec14610083575b600080fd5b61004e61009f565b60405161005c9291906102f5565b60405180910390f35b61006d610139565b60405161007a91906103bb565b60405180910390f35b61009d60048036038101906100989190610552565b6101ef565b005b60008060000154908060010180546100b6906105dd565b80601f01602080910402602001604051908101604052809291908181526020018280546100e2906105dd565b801561012f5780601f106101045761010080835404028352916020019161012f565b820191906000526020600020905b81548152906001019060200180831161011257829003601f168201915b5050505050905082565b610141610232565b600060405180604001604052908160008201548152602001600182018054610168906105dd565b80601f0160208091040260200160405190810160405280929190818152602001828054610194906105dd565b80156101e15780601f106101b6576101008083540402835291602001916101e1565b820191906000526020600020905b8154815290600101906020018083116101c457829003601f168201915b505050505081525050905090565b60006040518060400160405280848152602001838152509050806000808201518160000155602082015181600101908161022991906107ba565b50905050505050565b604051806040016040528060008152602001606081525090565b6000819050919050565b61025f8161024c565b82525050565b600081519050919050565b600082825260208201905092915050565b60005b8381101561029f578082015181840152602081019050610284565b60008484015250505050565b6000601f19601f8301169050919050565b60006102c782610265565b6102d18185610270565b93506102e1818560208601610281565b6102ea816102ab565b840191505092915050565b600060408201905061030a6000830185610256565b818103602083015261031c81846102bc565b90509392505050565b61032e8161024c565b82525050565b600082825260208201905092915050565b600061035082610265565b61035a8185610334565b935061036a818560208601610281565b610373816102ab565b840191505092915050565b60006040830160008301516103966000860182610325565b50602083015184820360208601526103ae8282610345565b9150508091505092915050565b600060208201905081810360008301526103d5818461037e565b905092915050565b6000604051905090565b600080fd5b600080fd5b6103fa8161024c565b811461040557600080fd5b50565b600081359050610417816103f1565b92915050565b600080fd5b600080fd5b7f4e487b7100000000000000000000000000000000000000000000000000000000600052604160045260246000fd5b61045f826102ab565b810181811067ffffffffffffffff8211171561047e5761047d610427565b5b80604052505050565b60006104916103dd565b905061049d8282610456565b919050565b600067ffffffffffffffff8211156104bd576104bc610427565b5b6104c6826102ab565b9050602081019050919050565b82818337600083830152505050565b60006104f56104f0846104a2565b610487565b90508281526020810184848401111561051157610510610422565b5b61051c8482856104d3565b509392505050565b600082601f8301126105395761053861041d565b5b81356105498482602086016104e2565b91505092915050565b60008060408385031215610569576105686103e7565b5b600061057785828601610408565b925050602083013567ffffffffffffffff811115610598576105976103ec565b5b6105a485828601610524565b9150509250929050565b7f4e487b7100000000000000000000000000000000000000000000000000000000600052602260045260246000fd5b600060028204905060018216806105f557607f821691505b602082108103610608576106076105ae565b5b50919050565b60008190508160005260206000209050919050565b60006020601f8301049050919050565b600082821b905092915050565b6000600883026106707fffffffffffffffffffffffffffffffffffffffffffffffffffffffffffffffff82610633565b61067a8683610633565b95508019841693508086168417925050509392505050565b6000819050919050565b60006106b76106b26106ad8461024c565b610692565b61024c565b9050919050565b6000819050919050565b6106d18361069c565b6106e56106dd826106be565b848454610640565b825550505050565b600090565b6106fa6106ed565b6107058184846106c8565b505050565b5b818110156107295761071e6000826106f2565b60018101905061070b565b5050565b601f82111561076e5761073f8161060e565b61074884610623565b81016020851015610757578190505b61076b61076385610623565b83018261070a565b50505b505050565b600082821c905092915050565b600061079160001984600802610773565b1980831691505092915050565b60006107aa8383610780565b9150826002028217905092915050565b6107c382610265565b67ffffffffffffffff8111156107dc576107db610427565b5b6107e682546105dd565b6107f182828561072d565b600060209050601f8311600181146108245760008415610812578287015190505b61081c858261079e565b865550610884565b601f1984166108328661060e565b60005b8281101561085a57848901518255600182019150602085019450602081019050610835565b868310156108775784890151610873601f891682610780565b8355505b6001600288020188555050505b50505050505056fea26469706673582212206d306771dc1125482fe3a86d2084ca339c8aa0fafce6c7c36ab4ba0d5319f4b264736f6c634300081c0033",
  "linkReferences": {},
  "deployedLinkReferences": {}
}