{"contracts/Structure.sol":{"Stud":{"abi":[{"inputs":[{"internalType":"uint256","name":"_rollNo","type":"uint256"},{"internalType":"string","name":"_name","type":"string"}],"stateMutability":"nonpayable","type":"constructor"},{"inputs":[{"internalType":"uint256","name":"_rollNo","type":"uint256"},{"internalType":"string","name":"_name","type":"string"}],"name":"change","outputs":[],"stateMutability":"nonpayable","type":"function"},{"inputs":[],"name":"get","outputs":[{"components":[{"internalType":"uint256","name":"rollNo","type":"uint256"},{"internalType":"string","name":"name","type":"string"}],"internalType":"struct Student","name":"","type":"tuple"}],"stateMutability":"view","type":"function"},{"inputs":[],"name":"s1","outputs":[{"internalType":"uint256","name":"rollNo","type":"uint256"},{"internalType":"string","name":"name","type":"string"}],"stateMutability":"view","type":"function"}],"evm":{"bytecode":{"linkReferences":{},"object":"608060405234801561001057600080fd5b50604051610e16380380610e1683398181016040528101906100329190610200565b816000800181905550806000600101908161004d9190610473565b505050610545565b6000604051905090565b600080fd5b600080fd5b6000819050919050565b61007c81610069565b811461008757600080fd5b50565b60008151905061009981610073565b92915050565b600080fd5b600080fd5b6000601f19601f8301169050919050565b7f4e487b7100000000000000000000000000000000000000000000000000000000600052604160045260246000fd5b6100f2826100a9565b810181811067ffffffffffffffff82111715610111576101106100ba565b5b80604052505050565b6000610124610055565b905061013082826100e9565b919050565b600067ffffffffffffffff8211156101505761014f6100ba565b5b610159826100a9565b9050602081019050919050565b60005b83811015610184578082015181840152602081019050610169565b60008484015250505050565b60006101a361019e84610135565b61011a565b9050828152602081018484840111156101bf576101be6100a4565b5b6101ca848285610166565b509392505050565b600082601f8301126101e7576101e661009f565b5b81516101f7848260208601610190565b91505092915050565b600080604083850312156102175761021661005f565b5b60006102258582860161008a565b925050602083015167ffffffffffffffff81111561024657610245610064565b5b610252858286016101d2565b9150509250929050565b600081519050919050565b7f4e487b7100000000000000000000000000000000000000000000000000000000600052602260045260246000fd5b600060028204905060018216806102ae57607f821691505b6020821081036102c1576102c0610267565b5b50919050565b60008190508160005260206000209050919050565b60006020601f8301049050919050565b600082821b905092915050565b6000600883026103297fffffffffffffffffffffffffffffffffffffffffffffffffffffffffffffffff826102ec565b61033386836102ec565b95508019841693508086168417925050509392505050565b6000819050919050565b600061037061036b61036684610069565b61034b565b610069565b9050919050565b6000819050919050565b61038a83610355565b61039e61039682610377565b8484546102f9565b825550505050565b600090565b6103b36103a6565b6103be818484610381565b505050565b5b818110156103e2576103d76000826103ab565b6001810190506103c4565b5050565b601f821115610427576103f8816102c7565b610401846102dc565b81016020851015610410578190505b61042461041c856102dc565b8301826103c3565b50505b505050565b600082821c905092915050565b600061044a6000198460080261042c565b1980831691505092915050565b60006104638383610439565b9150826002028217905092915050565b61047c8261025c565b67ffffffffffffffff811115610495576104946100ba565b5b61049f8254610296565b6104aa8282856103e6565b600060209050601f8311600181146104dd57600084156104cb578287015190505b6104d58582610457565b86555061053d565b601f1984166104eb866102c7565b60005b82811015610513578489015182556001820191506020850194506020810190506104ee565b86831015610530578489015161052c601f891682610439565b8355505b6001600288020188555050505b505050505050565b6108c2806105546000396000f3fe608060405234801561001057600080fd5b50600436106100415760003560e01c80636cc014de146100465780636d4ce63c14610065578063c75226ec14610083575b600080fd5b61004e61009f565b60405161005c9291906102f5565b60405180910390f35b61006d610139565b60405161007a91906103bb565b60405180910390f35b61009d60048036038101906100989190610552565b6101ef565b005b60008060000154908060010180546100b6906105dd565b80601f01602080910402602001604051908101604052809291908181526020018280546100e2906105dd565b801561012f5780601f106101045761010080835404028352916020019161012f565b820191906000526020600020905b81548152906001019060200180831161011257829003601f168201915b5050505050905082565b610141610232565b600060405180604001604052908160008201548152602001600182018054610168906105dd565b80601f0160208091040260200160405190810160405280929190818152602001828054610194906105dd565b80156101e15780601f106101b6576101008083540402835291602001916101e1565b820191906000526020600020905b8154815290600101906020018083116101c457829003601f168201915b505050505081525050905090565b60006040518060400160405280848152602001838152509050806000808201518160000155602082015181600101908161022991906107ba565b50905050505050565b604051806040016040528060008152602001606081525090565b6000819050919050565b61025f8161024c565b82525050565b600081519050919050565b600082825260208201905092915050565b60005b8381101561029f578082015181840152602081019050610284565b60008484015250505050565b6000601f19601f8301169050919050565b60006102c782610265565b6102d18185610270565b93506102e1818560208601610281565b6102ea816102ab565b840191505092915050565b600060408201905061030a6000830185610256565b818103602083015261031c81846102bc565b90509392505050565b61032e8161024c565b82525050565b600082825260208201905092915050565b600061035082610265565b61035a8185610334565b935061036a818560208601610281565b610373816102ab565b840191505092915050565b60006040830160008301516103966000860182610325565b50602083015184820360208601526103ae8282610345565b9150508091505092915050565b600060208201905081810360008301526103d5818461037e565b905092915050565b6000604051905090565b600080fd5b600080fd5b6103fa8161024c565b811461040557600080fd5b50565b600081359050610417816103f1565b92915050565b600080fd5b600080fd5b7f4e487b7100000000000000000000000000000000000000000000000000000000600052604160045260246000fd5b61045f826102ab565b810181811067ffffffffffffffff8211171561047e5761047d610427565b5b80604052505050565b60006104916103dd565b905061049d8282610456565b919050565b600067ffffffffffffffff8211156104bd576104bc610427565b5b6104c6826102ab565b9050602081019050919050565b82818337600083830152505050565b60006104f56104f0846104a2565b610487565b90508281526020810184848401111561051157610510610422565b5b61051c8482856104d3565b509392505050565b600082601f8301126105395761053861041d565b5b81356105498482602086016104e2565b91505092915050565b60008060408385031215610569576105686103e7565b5b600061057785828601610408565b925050602083013567ffffffffffffffff811115610598576105976103ec565b5b6105a485828601610524565b9150509250929050565b7f4e487b7100000000000000000000000000000000000000000000000000000000600052602260045260246000fd5b600060028204905060018216806105f557607f821691505b602082108103610608576106076105ae565b5b50919050565b60008190508160005260206000209050919050565b60006020601f8301049050919050565b600082821b905092915050565b6000600883026106707fffffffffffffffffffffffffffffffffffffffffffffffffffffffffffffffff82610633565b61067a8683610633565b95508019841693508086168417925050509392505050565b6000819050919050565b60006106b76106b26106ad8461024c565b610692565b61024c565b9050919050565b6000819050919050565b6106d18361069c565b6106e56106dd826106be565b848454610640565b825550505050565b600090565b6106fa6106ed565b6107058184846106c8565b505050565b5b818110156107295761071e6000826106f2565b60018101905061070b565b5050565b601f82111561076e5761073f8161060e565b61074884610623565b81016020851015610757578190505b61076b61076385610623565b83018261070a565b50505b505050565b600082821c905092915050565b600061079160001984600802610773565b1980831691505092915050565b60006107aa8383610780565b9150826002028217905092915050565b6107c382610265565b67ffffffffffffffff8111156107dc576107db610427565b5b6107e682546105dd565b6107f182828561072d565b600060209050601f8311600181146108245760008415610812578287015190505b61081c858261079e565b865550610884565b601f1984166108328661060e565b60005b8281101561085a57848901518255600182019150602085019450602081019050610835565b868310156108775784890151610873601f891682610780565b8355505b6001600288020188555050505b50505050505056fea26469706673582212206d306771dc1125482fe3a86d2084ca339c8aa0fafce6c7c36ab4ba0d5319f4b264736f6c634300081c0033","opcodes":"PUSH1 0x80 PUSH1 0x40 MSTORE CALLVALUE DUP1 ISZERO PUSH2 0x10 JUMPI PUSH1 0x0 DUP1 REVERT JUMPDEST POP PUSH1 0x40 MLOAD PUSH2 0xE16 CODESIZE SUB DUP1 PUSH2 0xE16 DUP4 CODECOPY DUP2 DUP2 ADD PUSH1 0x40 MSTORE DUP2 ADD SWAP1 PUSH2 0x32 SWAP2 SWAP1 PUSH2 0x200 JUMP JUMPDEST DUP2 PUSH1 0x0 DUP1 ADD DUP2 SWAP1 SSTORE POP DUP1 PUSH1 0x0 PUSH1 0x1 ADD SWAP1 DUP2 PUSH2 0x4D SWAP2 SWAP1 PUSH2 0x473 JUMP JUMPDEST POP POP POP PUSH2 0x545 JUMP JUMPDEST PUSH1 0x0 PUSH1 0x40 MLOAD SWAP1 POP SWAP1 JUMP JUMPDEST PUSH1 0x0 DUP1 REVERT JUMPDEST PUSH1 0x0 DUP1 REVERT JUMPDEST PUSH1 0x0 DUP2 SWAP1 POP SWAP2 SWAP1 POP JUMP JUMPDEST PUSH2 0x7C DUP2 PUSH2 0x69 JUMP JUMPDEST DUP2 EQ PUSH2 0x87 JUMPI PUSH1 0x0 DUP1 REVERT JUMPDEST POP JUMP JUMPDEST PUSH1 0x0 DUP2 MLOAD SWAP1 POP PUSH2 0x99 DUP2 PUSH2 0x73 JUMP JUMPDEST SWAP3 SWAP2 POP POP JUMP JUMPDEST PUSH1 0x0 DUP1 REVERT JUMPDEST PUSH1 0x0 DUP1 REVERT JUMPDEST PUSH1 0x0 PUSH1 0x1F NOT PUSH1 0x1F DUP4 ADD AND SWAP1 POP SWAP2 SWAP1 POP JUMP JUMPDEST PUSH32 0x4E487B7100000000000000000000000000000000000000000000000000000000 PUSH1 0x0 MSTORE PUSH1 0x41 PUSH1 0x4 MSTORE PUSH1 0x24 PUSH1 0x0 REVERT JUMPDEST PUSH2 0xF2 DUP3 PUSH2 0xA9 JUMP JUMPDEST DUP2 ADD DUP2 DUP2 LT PUSH8 0xFFFFFFFFFFFFFFFF DUP3 GT OR ISZERO PUSH2 0x111 JUMPI PUSH2 0x110 PUSH2 0xBA JUMP JUMPDEST JUMPDEST DUP1 PUSH1 0x40 MSTORE POP POP POP JUMP JUMPDEST PUSH1 0x0 PUSH2 0x124 PUSH2 0x55 JUMP JUMPDEST SWAP1 POP PUSH2 0x130 DUP3 DUP3 PUSH2 0xE9 JUMP JUMPDEST SWAP2 SWAP1 POP JUMP JUMPDEST PUSH1 0x0 PUSH8 0xFFFFFFFFFFFFFFFF DUP3 GT ISZERO PUSH2 0x150 JUMPI PUSH2 0x14F PUSH2 0xBA JUMP JUMPDEST JUMPDEST PUSH2 0x159 DUP3 PUSH2 0xA9 JUMP JUMPDEST SWAP1 POP PUSH1 0x20 DUP2 ADD SWAP1 POP SWAP2 SWAP1 POP JUMP JUMPDEST PUSH1 0x0 JUMPDEST DUP4 DUP2 LT ISZERO PUSH2 0x184 JUMPI DUP1 DUP3 ADD MLOAD DUP2 DUP5 ADD MSTORE PUSH1 0x20 DUP2 ADD SWAP1 POP PUSH2 0x169 JUMP JUMPDEST PUSH1 0x0 DUP5 DUP5 ADD MSTORE POP POP POP POP JUMP JUMPDEST PUSH1 0x0 PUSH2 0x1A3 PUSH2 0x19E DUP5 PUSH2 0x135 JUMP JUMPDEST PUSH2 0x11A JUMP JUMPDEST SWAP1 POP DUP3 DUP2 MSTORE PUSH1 0x20 DUP2 ADD DUP5 DUP5 DUP5 ADD GT ISZERO PUSH2 0x1BF JUMPI PUSH2 0x1BE PUSH2 0xA4 JUMP JUMPDEST JUMPDEST PUSH2 0x1CA DUP5 DUP3 DUP6 PUSH2 0x166 JUMP JUMPDEST POP SWAP4 SWAP3 POP POP POP JUMP JUMPDEST PUSH1 0x0 DUP3 PUSH1 0x1F DUP4 ADD SLT PUSH2 0x1E7 JUMPI PUSH2 0x1E6 PUSH2 0x9F JUMP JUMPDEST JUMPDEST DUP2 MLOAD PUSH2 0x1F7 DUP5 DUP3 PUSH1 0x20 DUP7 ADD PUSH2 0x190 JUMP JUMPDEST SWAP2 POP POP SWAP3 SWAP2 POP POP JUMP JUMPDEST PUSH1 0x0 DUP1 PUSH1 0x40 DUP4 DUP6 SUB SLT ISZERO PUSH2 0x217 JUMPI PUSH2 0x216 PUSH2 0x5F JUMP JUMPDEST JUMPDEST PUSH1 0x0 PUSH2 0x225 DUP6 DUP3 DUP7 ADD PUSH2 0x8A JUMP JUMPDEST SWAP3 POP POP PUSH1 0x20 DUP4 ADD MLOAD PUSH8 0xFFFFFFFFFFFFFFFF DUP2 GT ISZERO PUSH2 0x246 JUMPI PUSH2 0x245 PUSH2 0x64 JUMP JUMPDEST JUMPDEST PUSH2 0x252 DUP6 DUP3 DUP7 ADD PUSH2 0x1D2 JUMP JUMPDEST SWAP2 POP POP SWAP3 POP SWAP3 SWAP1 POP JUMP JUMPDEST PUSH1 0x0 DUP2 MLOAD SWAP1 POP SWAP2 SWAP1 POP JUMP JUMPDEST PUSH32 0x4E487B7100000000000000000000000000000000000000000000000000000000 PUSH1 0x0 MSTORE PUSH1 0x22 PUSH1 0x4 MSTORE PUSH1 0x24 PUSH1 0x0 REVERT JUMPDEST PUSH1 0x0 PUSH1 0x2 DUP3 DIV SWAP1 POP PUSH1 0x1 DUP3 AND DUP1 PUSH2 0x2AE JUMPI PUSH1 0x7F DUP3 AND SWAP2 POP JUMPDEST PUSH1 0x20 DUP3 LT DUP2 SUB PUSH2 0x2C1 JUMPI PUSH2 0x2C0 PUSH2 0x267 JUMP JUMPDEST JUMPDEST POP SWAP2 SWAP1 POP JUMP JUMPDEST PUSH1 0x0 DUP2 SWAP1 POP DUP2 PUSH1 0x0 MSTORE PUSH1 0x20 PUSH1 0x0 KECCAK256 SWAP1 POP SWAP2 SWAP1 POP JUMP JUMPDEST PUSH1 0x0 PUSH1 0x20 PUSH1 0x1F DUP4 ADD DIV SWAP1 POP SWAP2 SWAP1 POP JUMP JUMPDEST PUSH1 0x0 DUP3 DUP3 SHL SWAP1 POP SWAP3 SWAP2 POP POP JUMP JUMPDEST PUSH1 0x0 PUSH1 0x8 DUP4 MUL PUSH2 0x329 PUSH32 0xFFFFFFFFFFFFFFFFFFFFFFFFFFFFFFFFFFFFFFFFFFFFFFFFFFFFFFFFFFFFFFFF DUP3 PUSH2 0x2EC JUMP JUMPDEST PUSH2 0x333 DUP7 DUP4 PUSH2 0x2EC JUMP JUMPDEST SWAP6 POP DUP1 NOT DUP5 AND SWAP4 POP DUP1 DUP7 AND DUP5 OR SWAP3 POP POP POP SWAP4 SWAP3 POP POP POP JUMP JUMPDEST PUSH1 0x0 DUP2 SWAP1 POP SWAP2 SWAP1 POP JUMP JUMPDEST PUSH1 0x0 PUSH2 0x370 PUSH2 0x36B PUSH2 0x366 DUP5 PUSH2 0x69 JUMP JUMPDEST PUSH2 0x34B JUMP JUMPDEST PUSH2 0x69 JUMP JUMPDEST SWAP1 POP SWAP2 SWAP1 POP JUMP JUMPDEST PUSH1 0x0 DUP2 SWAP1 POP SWAP2 SWAP1 POP JUMP JUMPDEST PUSH2 0x38A DUP4 PUSH2 0x355 JUMP JUMPDEST PUSH2 0x39E PUSH2 0x396 DUP3 PUSH2 0x377 JUMP JUMPDEST DUP5 DUP5 SLOAD PUSH2 0x2F9 JUMP JUMPDEST DUP3 SSTORE POP POP POP POP JUMP JUMPDEST PUSH1 0x0 SWAP1 JUMP JUMPDEST PUSH2 0x3B3 PUSH2 0x3A6 JUMP JUMPDEST PUSH2 0x3BE DUP2 DUP5 DUP5 PUSH2 0x381 JUMP JUMPDEST POP POP POP JUMP JUMPDEST JUMPDEST DUP2 DUP2 LT ISZERO PUSH2 0x3E2 JUMPI PUSH2 0x3D7 PUSH1 0x0 DUP3 PUSH2 0x3AB JUMP JUMPDEST PUSH1 0x1 DUP2 ADD SWAP1 POP PUSH2 0x3C4 JUMP JUMPDEST POP POP JUMP JUMPDEST PUSH1 0x1F DUP3 GT ISZERO PUSH2 0x427 JUMPI PUSH2 0x3F8 DUP2 PUSH2 0x2C7 JUMP JUMPDEST PUSH2 0x401 DUP5 PUSH2 0x2DC JUMP JUMPDEST DUP2 ADD PUSH1 0x20 DUP6 LT ISZERO PUSH2 0x410 JUMPI DUP2 SWAP1 POP JUMPDEST PUSH2 0x424 PUSH2 0x41C DUP6 PUSH2 0x2DC JUMP JUMPDEST DUP4 ADD DUP3 PUSH2 0x3C3 JUMP JUMPDEST POP POP JUMPDEST POP POP POP JUMP JUMPDEST PUSH1 0x0 DUP3 DUP3 SHR SWAP1 POP SWAP3 SWAP2 POP POP JUMP JUMPDEST PUSH1 0x0 PUSH2 0x44A PUSH1 0x0 NOT DUP5 PUSH1 0x8 MUL PUSH2 0x42C JUMP JUMPDEST NOT DUP1 DUP4 AND SWAP2 POP POP SWAP3 SWAP2 POP POP JUMP JUMPDEST PUSH1 0x0 PUSH2 0x463 DUP4 DUP4 PUSH2 0x439 JUMP JUMPDEST SWAP2 POP DUP3 PUSH1 0x2 MUL DUP3 OR SWAP1 POP SWAP3 SWAP2 POP POP JUMP JUMPDEST PUSH2 0x47C DUP3 PUSH2 0x25C JUMP JUMPDEST PUSH8 0xFFFFFFFFFFFFFFFF DUP2 GT ISZERO PUSH2 0x495 JUMPI PUSH2 0x494 PUSH2 0xBA JUMP JUMPDEST JUMPDEST PUSH2 0x49F DUP3 SLOAD PUSH2 0x296 JUMP JUMPDEST PUSH2 0x4AA DUP3 DUP3 DUP6 PUSH2 0x3E6 JUMP JUMPDEST PUSH1 0x0 PUSH1 0x20 SWAP1 POP PUSH1 0x1F DUP4 GT PUSH1 0x1 DUP2 EQ PUSH2 0x4DD JUMPI PUSH1 0x0 DUP5 ISZERO PUSH2 0x4CB JUMPI DUP3 DUP8 ADD MLOAD SWAP1 POP JUMPDEST PUSH2 0x4D5 DUP6 DUP3 PUSH2 0x457 JUMP JUMPDEST DUP7 SSTORE POP PUSH2 0x53D JUMP JUMPDEST PUSH1 0x1F NOT DUP5 AND PUSH2 0x4EB DUP7 PUSH2 0x2C7 JUMP JUMPDEST PUSH1 0x0 JUMPDEST DUP3 DUP2 LT ISZERO PUSH2 0x513 JUMPI DUP5 DUP10 ADD MLOAD DUP3 SSTORE PUSH1 0x1 DUP3 ADD SWAP2 POP PUSH1 0x20 DUP6 ADD SWAP5 POP PUSH1 0x20 DUP2 ADD SWAP1 POP PUSH2 0x4EE JUMP JUMPDEST DUP7 DUP4 LT ISZERO PUSH2 0x530 JUMPI DUP5 DUP10 ADD MLOAD PUSH2 0x52C PUSH1 0x1F DUP10 AND DUP3 PUSH2 0x439 JUMP JUMPDEST DUP4 SSTORE POP JUMPDEST PUSH1 0x1 PUSH1 0x2 DUP9 MUL ADD DUP9 SSTORE POP POP POP JUMPDEST POP POP POP POP POP POP JUMP JUMPDEST PUSH2 0x8C2 DUP1 PUSH2 0x554 PUSH1 0x0 CODECOPY PUSH1 0x0 RETURN INVALID PUSH1 0x80 PUSH1 0x40 MSTORE CALLVALUE DUP1 ISZERO PUSH2 0x10 JUMPI PUSH1 0x0 DUP1 REVERT JUMPDEST POP PUSH1 0x4 CALLDATASIZE LT PUSH2 0x41 JUMPI PUSH1 0x0 CALLDATALOAD PUSH1 0xE0 SHR DUP1 PUSH4 0x6CC014DE EQ PUSH2 0x46 JUMPI DUP1 PUSH4 0x6D4CE63C EQ PUSH2 0x65 JUMPI DUP1 PUSH4 0xC75226EC EQ PUSH2 0x83 JUMPI JUMPDEST PUSH1 0x0 DUP1 REVERT JUMPDEST PUSH2 0x4E PUSH2 0x9F JUMP JUMPDEST PUSH1 0x40 MLOAD PUSH2 0x5C SWAP3 SWAP2 SWAP1 PUSH2 0x2F5 JUMP JUMPDEST PUSH1 0x40 MLOAD DUP1 SWAP2 SUB SWAP1 RETURN JUMPDEST PUSH2 0x6D PUSH2 0x139 JUMP JUMPDEST PUSH1 0x40 MLOAD PUSH2 0x7A SWAP2 SWAP1 PUSH2 0x3BB JUMP JUMPDEST PUSH1 0x40 MLOAD DUP1 SWAP2 SUB SWAP1 RETURN JUMPDEST PUSH2 0x9D PUSH1 0x4 DUP1 CALLDATASIZE SUB DUP2 ADD SWAP1 PUSH2 0x98 SWAP2 SWAP1 PUSH2 0x552 JUMP JUMPDEST PUSH2 0x1EF JUMP JUMPDEST STOP JUMPDEST PUSH1 0x0 DUP1 PUSH1 0x0 ADD SLOAD SWAP1 DUP1 PUSH1 0x1 ADD DUP1 SLOAD PUSH2 0xB6 SWAP1 PUSH2 0x5DD JUMP JUMPDEST DUP1 PUSH1 0x1F ADD PUSH1 0x20 DUP1 SWAP2 DIV MUL PUSH1 0x20 ADD PUSH1 0x40 MLOAD SWAP1 DUP2 ADD PUSH1 0x40 MSTORE DUP1 SWAP3 SWAP2 SWAP1 DUP2 DUP2 MSTORE PUSH1 0x20 ADD DUP3 DUP1 SLOAD PUSH2 0xE2 SWAP1 PUSH2 0x5DD JUMP JUMPDEST DUP1 ISZERO PUSH2 0x12F JUMPI DUP1 PUSH1 0x1F LT PUSH2 0x104 JUMPI PUSH2 0x100 DUP1 DUP4 SLOAD DIV MUL DUP4 MSTORE SWAP2 PUSH1 0x20 ADD SWAP2 PUSH2 0x12F JUMP JUMPDEST DUP3 ADD SWAP2 SWAP1 PUSH1 0x0 MSTORE PUSH1 0x20 PUSH1 0x0 KECCAK256 SWAP1 JUMPDEST DUP2 SLOAD DUP2 MSTORE SWAP1 PUSH1 0x1 ADD SWAP1 PUSH1 0x20 ADD DUP1 DUP4 GT PUSH2 0x112 JUMPI DUP3 SWAP1 SUB PUSH1 0x1F AND DUP3 ADD SWAP2 JUMPDEST POP POP POP POP POP SWAP1 POP DUP3 JUMP JUMPDEST PUSH2 0x141 PUSH2 0x232 JUMP JUMPDEST PUSH1 0x0 PUSH1 0x40 MLOAD DUP1 PUSH1 0x40 ADD PUSH1 0x40 MSTORE SWAP1 DUP2 PUSH1 0x0 DUP3 ADD SLOAD DUP2 MSTORE PUSH1 0x20 ADD PUSH1 0x1 DUP3 ADD DUP1 SLOAD PUSH2 0x168 SWAP1 PUSH2 0x5DD JUMP JUMPDEST DUP1 PUSH1 0x1F ADD PUSH1 0x20 DUP1 SWAP2 DIV MUL PUSH1 0x20 ADD PUSH1 0x40 MLOAD SWAP1 DUP2 ADD PUSH1 0x40 MSTORE DUP1 SWAP3 SWAP2 SWAP1 DUP2 DUP2 MSTORE PUSH1 0x20 ADD DUP3 DUP1 SLOAD PUSH2 0x194 SWAP1 PUSH2 0x5DD JUMP JUMPDEST DUP1 ISZERO PUSH2 0x1E1 JUMPI DUP1 PUSH1 0x1F LT PUSH2 0x1B6 JUMPI PUSH2 0x100 DUP1 DUP4 SLOAD DIV MUL DUP4 MSTORE SWAP2 PUSH1 0x20 ADD SWAP2 PUSH2 0x1E1 JUMP JUMPDEST DUP3 ADD SWAP2 SWAP1 PUSH1 0x0 MSTORE PUSH1 0x20 PUSH1 0x0 KECCAK256 SWAP1 JUMPDEST DUP2 SLOAD DUP2 MSTORE SWAP1 PUSH1 0x1 ADD SWAP1 PUSH1 0x20 ADD DUP1 DUP4 GT PUSH2 0x1C4 JUMPI DUP3 SWAP1 SUB PUSH1 0x1F AND DUP3 ADD SWAP2 JUMPDEST POP POP POP POP POP DUP2 MSTORE POP POP SWAP1 POP SWAP1 JUMP JUMPDEST PUSH1 0x0 PUSH1 0x40 MLOAD DUP1 PUSH1 0x40 ADD PUSH1 0x40 MSTORE DUP1 DUP5 DUP2 MSTORE PUSH1 0x20 ADD DUP4 DUP2 MSTORE POP SWAP1 POP DUP1 PUSH1 0x0 DUP1 DUP3 ADD MLOAD DUP2 PUSH1 0x0 ADD SSTORE PUSH1 0x20 DUP3 ADD MLOAD DUP2 PUSH1 0x1 ADD SWAP1 DUP2 PUSH2 0x229 SWAP2 SWAP1 PUSH2 0x7BA JUMP JUMPDEST POP SWAP1 POP POP POP POP POP JUMP JUMPDEST PUSH1 0x40 MLOAD DUP1 PUSH1 0x40 ADD PUSH1 0x40 MSTORE DUP1 PUSH1 0x0 DUP2 MSTORE PUSH1 0x20 ADD PUSH1 0x60 DUP2 MSTORE POP SWAP1 JUMP JUMPDEST PUSH1 0x0 DUP2 SWAP1 POP SWAP2 SWAP1 POP JUMP JUMPDEST PUSH2 0x25F DUP2 PUSH2 0x24C JUMP JUMPDEST DUP3 MSTORE POP POP JUMP JUMPDEST PUSH1 0x0 DUP2 MLOAD SWAP1 POP SWAP2 SWAP1 POP JUMP JUMPDEST PUSH1 0x0 DUP3 DUP3 MSTORE PUSH1 0x20 DUP3 ADD SWAP1 POP SWAP3 SWAP2 POP POP JUMP JUMPDEST PUSH1 0x0 JUMPDEST DUP4 DUP2 LT ISZERO PUSH2 0x29F JUMPI DUP1 DUP3 ADD MLOAD DUP2 DUP5 ADD MSTORE PUSH1 0x20 DUP2 ADD SWAP1 POP PUSH2 0x284 JUMP JUMPDEST PUSH1 0x0 DUP5 DUP5 ADD MSTORE POP POP POP POP JUMP JUMPDEST PUSH1 0x0 PUSH1 0x1F NOT PUSH1 0x1F DUP4 ADD AND SWAP1 POP SWAP2 SWAP1 POP JUMP JUMPDEST PUSH1 0x0 PUSH2 0x2C7 DUP3 PUSH2 0x265 JUMP JUMPDEST PUSH2 0x2D1 DUP2 DUP6 PUSH2 0x270 JUMP JUMPDEST SWAP4 POP PUSH2 0x2E1 DUP2 DUP6 PUSH1 0x20 DUP7 ADD PUSH2 0x281 JUMP JUMPDEST PUSH2 0x2EA DUP2 PUSH2 0x2AB JUMP JUMPDEST DUP5 ADD SWAP2 POP POP SWAP3 SWAP2 POP POP JUMP JUMPDEST PUSH1 0x0 PUSH1 0x40 DUP3 ADD SWAP1 POP PUSH2 0x30A PUSH1 0x0 DUP4 ADD DUP6 PUSH2 0x256 JUMP JUMPDEST DUP2 DUP2 SUB PUSH1 0x20 DUP4 ADD MSTORE PUSH2 0x31C DUP2 DUP5 PUSH2 0x2BC JUMP JUMPDEST SWAP1 POP SWAP4 SWAP3 POP POP POP JUMP JUMPDEST PUSH2 0x32E DUP2 PUSH2 0x24C JUMP JUMPDEST DUP3 MSTORE POP POP JUMP JUMPDEST PUSH1 0x0 DUP3 DUP3 MSTORE PUSH1 0x20 DUP3 ADD SWAP1 POP SWAP3 SWAP2 POP POP JUMP JUMPDEST PUSH1 0x0 PUSH2 0x350 DUP3 PUSH2 0x265 JUMP JUMPDEST PUSH2 0x35A DUP2 DUP6 PUSH2 0x334 JUMP JUMPDEST SWAP4 POP PUSH2 0x36A DUP2 DUP6 PUSH1 0x20 DUP7 ADD PUSH2 0x281 JUMP JUMPDEST PUSH2 0x373 DUP2 PUSH2 0x2AB JUMP JUMPDEST DUP5 ADD SWAP2 POP POP SWAP3 SWAP2 POP POP JUMP JUMPDEST PUSH1 0x0 PUSH1 0x40 DUP4 ADD PUSH1 0x0 DUP4 ADD MLOAD PUSH2 0x396 PUSH1 0x0 DUP7 ADD DUP3 PUSH2 0x325 JUMP JUMPDEST POP PUSH1 0x20 DUP4 ADD MLOAD DUP5 DUP3 SUB PUSH1 0x20 DUP7 ADD MSTORE PUSH2 0x3AE DUP3 DUP3 PUSH2 0x345 JUMP JUMPDEST SWAP2 POP POP DUP1 SWAP2 POP POP SWAP3 SWAP2 POP POP JUMP JUMPDEST PUSH1 0x0 PUSH1 0x20 DUP3 ADD SWAP1 POP DUP2 DUP2 SUB PUSH1 0x0 DUP4 ADD MSTORE PUSH2 0x3D5 DUP2 DUP5 PUSH2 0x37E JUMP JUMPDEST SWAP1 POP SWAP3 SWAP2 POP POP JUMP JUMPDEST PUSH1 0x0 PUSH1 0x40 MLOAD SWAP1 POP SWAP1 JUMP JUMPDEST PUSH1 0x0 DUP1 REVERT JUMPDEST PUSH1 0x0 DUP1 REVERT JUMPDEST PUSH2 0x3FA DUP2 PUSH2 0x24C JUMP JUMPDEST DUP2 EQ PUSH2 0x405 JUMPI PUSH1 0x0 DUP1 REVERT JUMPDEST POP JUMP JUMPDEST PUSH1 0x0 DUP2 CALLDATALOAD SWAP1 POP PUSH2 0x417 DUP2 PUSH2 0x3F1 JUMP JUMPDEST SWAP3 SWAP2 POP POP JUMP JUMPDEST PUSH1 0x0 DUP1 REVERT JUMPDEST PUSH1 0x0 DUP1 REVERT JUMPDEST PUSH32 0x4E487B7100000000000000000000000000000000000000000000000000000000 PUSH1 0x0 MSTORE PUSH1 0x41 PUSH1 0x4 MSTORE PUSH1 0x24 PUSH1 0x0 REVERT JUMPDEST PUSH2 0x45F DUP3 PUSH2 0x2AB JUMP JUMPDEST DUP2 ADD DUP2 DUP2 LT PUSH8 0xFFFFFFFFFFFFFFFF DUP3 GT OR ISZERO PUSH2 0x47E JUMPI PUSH2 0x47D PUSH2 0x427 JUMP JUMPDEST JUMPDEST DUP1 PUSH1 0x40 MSTORE POP POP POP JUMP JUMPDEST PUSH1 0x0 PUSH2 0x491 PUSH2 0x3DD JUMP JUMPDEST SWAP1 POP PUSH2 0x49D DUP3 DUP3 PUSH2 0x456 JUMP JUMPDEST SWAP2 SWAP1 POP JUMP JUMPDEST PUSH1 0x0 PUSH8 0xFFFFFFFFFFFFFFFF DUP3 GT ISZERO PUSH2 0x4BD JUMPI PUSH2 0x4BC PUSH2 0x427 JUMP JUMPDEST JUMPDEST PUSH2 0x4C6 DUP3 PUSH2 0x2AB JUMP JUMPDEST SWAP1 POP PUSH1 0x20 DUP2 ADD SWAP1 POP SWAP2 SWAP1 POP JUMP JUMPDEST DUP3 DUP2 DUP4 CALLDATACOPY PUSH1 0x0 DUP4 DUP4 ADD MSTORE POP POP POP JUMP JUMPDEST PUSH1 0x0 PUSH2 0x4F5 PUSH2 0x4F0 DUP5 PUSH2 0x4A2 JUMP JUMPDEST PUSH2 0x487 JUMP JUMPDEST SWAP1 POP DUP3 DUP2 MSTORE PUSH1 0x20 DUP2 ADD DUP5 DUP5 DUP5 ADD GT ISZERO PUSH2 0x511 JUMPI PUSH2 0x510 PUSH2 0x422 JUMP JUMPDEST JUMPDEST PUSH2 0x51C DUP5 DUP3 DUP6 PUSH2 0x4D3 JUMP JUMPDEST POP SWAP4 SWAP3 POP POP POP JUMP JUMPDEST PUSH1 0x0 DUP3 PUSH1 0x1F DUP4 ADD SLT PUSH2 0x539 JUMPI PUSH2 0x538 PUSH2 0x41D JUMP JUMPDEST JUMPDEST DUP2 CALLDATALOAD PUSH2 0x549 DUP5 DUP3 PUSH1 0x20 DUP7 ADD PUSH2 0x4E2 JUMP JUMPDEST SWAP2 POP POP SWAP3 SWAP2 POP POP JUMP JUMPDEST PUSH1 0x0 DUP1 PUSH1 0x40 DUP4 DUP6 SUB SLT ISZERO PUSH2 0x569 JUMPI PUSH2 0x568 PUSH2 0x3E7 JUMP JUMPDEST JUMPDEST PUSH1 0x0 PUSH2 0x577 DUP6 DUP3 DUP7 ADD PUSH2 0x408 JUMP JUMPDEST SWAP3 POP POP PUSH1 0x20 DUP4 ADD CALLDATALOAD PUSH8 0xFFFFFFFFFFFFFFFF DUP2 GT ISZERO PUSH2 0x598 JUMPI PUSH2 0x597 PUSH2 0x3EC JUMP JUMPDEST JUMPDEST PUSH2 0x5A4 DUP6 DUP3 DUP7 ADD PUSH2 0x524 JUMP JUMPDEST SWAP2 POP POP SWAP3 POP SWAP3 SWAP1 POP JUMP JUMPDEST PUSH32 0x4E487B7100000000000000000000000000000000000000000000000000000000 PUSH1 0x0 MSTORE PUSH1 0x22 PUSH1 0x4 MSTORE PUSH1 0x24 PUSH1 0x0 REVERT JUMPDEST PUSH1 0x0 PUSH1 0x2 DUP3 DIV SWAP1 POP PUSH1 0x1 DUP3 AND DUP1 PUSH2 0x5F5 JUMPI PUSH1 0x7F DUP3 AND SWAP2 POP JUMPDEST PUSH1 0x20 DUP3 LT DUP2 SUB PUSH2 0x608 JUMPI PUSH2 0x607 PUSH2 0x5AE JUMP JUMPDEST JUMPDEST POP SWAP2 SWAP1 POP JUMP JUMPDEST PUSH1 0x0 DUP2 SWAP1 POP DUP2 PUSH1 0x0 MSTORE PUSH1 0x20 PUSH1 0x0 KECCAK256 SWAP1 POP SWAP2 SWAP1 POP JUMP JUMPDEST PUSH1 0x0 PUSH1 0x20 PUSH1 0x1F DUP4 ADD DIV SWAP1 POP SWAP2 SWAP1 POP JUMP JUMPDEST PUSH1 0x0 DUP3 DUP3 SHL SWAP1 POP SWAP3 SWAP2 POP POP JUMP JUMPDEST PUSH1 0x0 PUSH1 0x8 DUP4 MUL PUSH2 0x670 PUSH32 0xFFFFFFFFFFFFFFFFFFFFFFFFFFFFFFFFFFFFFFFFFFFFFFFFFFFFFFFFFFFFFFFF DUP3 PUSH2 0x633 JUMP JUMPDEST PUSH2 0x67A DUP7 DUP4 PUSH2 0x633 JUMP JUMPDEST SWAP6 POP DUP1 NOT DUP5 AND SWAP4 POP DUP1 DUP7 AND DUP5 OR SWAP3 POP POP POP SWAP4 SWAP3 POP POP POP JUMP JUMPDEST PUSH1 0x0 DUP2 SWAP1 POP SWAP2 SWAP1 POP JUMP JUMPDEST PUSH1 0x0 PUSH2 0x6B7 PUSH2 0x6B2 PUSH2 0x6AD DUP5 PUSH2 0x24C JUMP JUMPDEST PUSH2 0x692 JUMP JUMPDEST PUSH2 0x24C JUMP JUMPDEST SWAP1 POP SWAP2 SWAP1 POP JUMP JUMPDEST PUSH1 0x0 DUP2 SWAP1 POP SWAP2 SWAP1 POP JUMP JUMPDEST PUSH2 0x6D1 DUP4 PUSH2 0x69C JUMP JUMPDEST PUSH2 0x6E5 PUSH2 0x6DD DUP3 PUSH2 0x6BE JUMP JUMPDEST DUP5 DUP5 SLOAD PUSH2 0x640 JUMP JUMPDEST DUP3 SSTORE POP POP POP POP JUMP JUMPDEST PUSH1 0x0 SWAP1 JUMP JUMPDEST PUSH2 0x6FA PUSH2 0x6ED JUMP JUMPDEST PUSH2 0x705 DUP2 DUP5 DUP5 PUSH2 0x6C8 JUMP JUMPDEST POP POP POP JUMP JUMPDEST JUMPDEST DUP2 DUP2 LT ISZERO PUSH2 0x729 JUMPI PUSH2 0x71E PUSH1 0x0 DUP3 PUSH2 0x6F2 JUMP JUMPDEST PUSH1 0x1 DUP2 ADD SWAP1 POP PUSH2 0x70B JUMP JUMPDEST POP POP JUMP JUMPDEST PUSH1 0x1F DUP3 GT ISZERO PUSH2 0x76E JUMPI PUSH2 0x73F DUP2 PUSH2 0x60E JUMP JUMPDEST PUSH2 0x748 DUP5 PUSH2 0x623 JUMP JUMPDEST DUP2 ADD PUSH1 0x20 DUP6 LT ISZERO PUSH2 0x757 JUMPI DUP2 SWAP1 POP JUMPDEST PUSH2 0x76B PUSH2 0x763 DUP6 PUSH2 0x623 JUMP JUMPDEST DUP4 ADD DUP3 PUSH2 0x70A JUMP JUMPDEST POP POP JUMPDEST POP POP POP JUMP JUMPDEST PUSH1 0x0 DUP3 DUP3 SHR SWAP1 POP SWAP3 SWAP2 POP POP JUMP JUMPDEST PUSH1 0x0 PUSH2 0x791 PUSH1 0x0 NOT DUP5 PUSH1 0x8 MUL PUSH2 0x773 JUMP JUMPDEST NOT DUP1 DUP4 AND SWAP2 POP POP SWAP3 SWAP2 POP POP JUMP JUMPDEST PUSH1 0x0 PUSH2 0x7AA DUP4 DUP4 PUSH2 0x780 JUMP JUMPDEST SWAP2 POP DUP3 PUSH1 0x2 MUL DUP3 OR SWAP1 POP SWAP3 SWAP2 POP POP JUMP JUMPDEST PUSH2 0x7C3 DUP3 PUSH2 0x265 JUMP JUMPDEST PUSH8 0xFFFFFFFFFFFFFFFF DUP2 GT ISZERO PUSH2 0x7DC JUMPI PUSH2 0x7DB PUSH2 0x427 JUMP JUMPDEST JUMPDEST PUSH2 0x7E6 DUP3 SLOAD PUSH2 0x5DD JUMP JUMPDEST PUSH2 0x7F1 DUP3 DUP3 DUP6 PUSH2 0x72D JUMP JUMPDEST PUSH1 0x0 PUSH1 0x20 SWAP1 POP PUSH1 0x1F DUP4 GT PUSH1 0x1 DUP2 EQ PUSH2 0x824 JUMPI PUSH1 0x0 DUP5 ISZERO PUSH2 0x812 JUMPI DUP3 DUP8 ADD MLOAD SWAP1 POP JUMPDEST PUSH2 0x81C DUP6 DUP3 PUSH2 0x79E JUMP JUMPDEST DUP7 SSTORE POP PUSH2 0x884 JUMP JUMPDEST PUSH1 0x1F NOT DUP5 AND PUSH2 0x832 DUP7 PUSH2 0x60E JUMP JUMPDEST PUSH1 0x0 JUMPDEST DUP3 DUP2 LT ISZERO PUSH2 0x85A JUMPI DUP5 DUP10 ADD MLOAD DUP3 SSTORE PUSH1 0x1 DUP3 ADD SWAP2 POP PUSH1 0x20 DUP6 ADD SWAP5 POP PUSH1 0x20 DUP2 ADD SWAP1 POP PUSH2 0x835 JUMP JUMPDEST DUP7 DUP4 LT ISZERO PUSH2 0x877 JUMPI DUP5 DUP10 ADD MLOAD PUSH2 0x873 PUSH1 0x1F DUP10 AND DUP3 PUSH2 0x780 JUMP JUMPDEST DUP4 SSTORE POP JUMPDEST PUSH1 0x1 PUSH1 0x2 DUP9 MUL ADD DUP9 SSTORE POP POP POP JUMPDEST POP POP POP POP POP POP JUMP INVALID LOG2 PUSH5 0x6970667358 0x22 SLT KECCAK256 PUSH14 0x306771DC1125482FE3A86D2084CA CALLER SWAP13 DUP11 LOG0 STATICCALL 0xFC 0xE6 0xC7 0xC3 PUSH11 0xB4BA0D5319F4B264736F6C PUSH4 0x4300081C STOP CALLER "},"methodIdentifiers":{"change(uint256,string)":"c75226ec","get()":"6d4ce63c","s1()":"6cc014de"}}}}}