{
  "_format": "hh-sol-artifact-1",
  "contractName": "TransferToken",
  "sourceName": "contracts/TransferToken.sol",
  "abi": [
    {
      "inputs": [
        {
          "internalType": "uint256",
          "name": "initialSupply",
          "type": "uint256"
        }
      ],
      "stateMutability": "nonpayable",
      "type": "constructor"
    },
    {
      "inputs": [
        {
          "internalType": "address",
          "name": "spender",
          "type": "address"
        },
        {
          "internalType": "uint256",
          "name": "allowance",
          "type": "uint256"
        },
        {
          "internalType": "uint256",
          "name": "needed",
          "type": "uint256"
        }
      ],
      "name": "ERC20InsufficientAllowance",
      "type": "error"
    },
    {
      "inputs": [
        {
          "internalType": "address",
          "name": "sender",
          "type": "address"
        },
        {
          "internalType": "uint256",
          "name": "balance",
          "type": "uint256"
        },
        {
          "internalType": "uint256",
          "name": "needed",
          "type": "uint256"
        }
      ],
      "name": "ERC20InsufficientBalance",
      "type": "error"
    },
    {
      "inputs": [
        {
          "internalType": "address",
          "name": "approver",
          "type": "address"
        }
      ],
      "name": "ERC20InvalidApprover",
      "type": "error"
    },
    {
      "inputs": [
        {
          "internalType": "address",
          "name": "receiver",
          "type": "address"
        }
      ],
      "name": "ERC20InvalidReceiver",
      "type": "error"
    },
    {
      "inputs": [
        {
          "internalType": "address",
          "name": "sender",
          "type": "address"
        }
      ],
      "name": "ERC20InvalidSender",
      "type": "error"
    },
    {
      "inputs": [
        {
          "internalType": "address",
          "name": "spender",
          "type": "address"
        }
      ],
      "name": "ERC20InvalidSpender",
      "type": "error"
    },
    {
      "inputs": [
        {
          "internalType": "address",
          "name": "owner",
          "type": "address"
        }
      ],
      "name": "OwnableInvalidOwner",
      "type": "error"
    },
    {
      "inputs": [
        {
          "internalType": "address",
          "name": "account",
          "type": "address"
        }
      ],
      "name": "OwnableUnauthorizedAccount",
      "type": "error"
    },
    {
      "anonymous": false,
      "inputs": [
        {
          "indexed": true,
          "internalType": "address",
          "name": "owner",
          "type": "address"
        },
        {
          "indexed": true,
          "internalType": "address",
          "name": "spender",
          "type": "address"
        },
        {
          "indexed": false,
          "internalType": "uint256",
          "name": "value",
          "type": "uint256"
        }
      ],
      "name": "Approval",
      "type": "event"
    },
    {
      "anonymous": false,
      "inputs": [
        {
          "indexed": true,
          "internalType": "address",
          "name": "previousOwner",
          "type": "address"
        },
        {
          "indexed": true,
          "internalType": "address",
          "name": "newOwner",
          "type": "address"
        }
      ],
      "name": "OwnershipTransferred",
      "type": "event"
    },
    {
      "anonymous": false,
      "inputs": [
        {
          "indexed": true,
          "internalType": "address",
          "name": "from",
          "type": "address"
        },
        {
          "indexed": true,
          "internalType": "address",
          "name": "to",
          "type": "address"
        },
        {
          "indexed": false,
          "internalType": "uint256",
          "name": "value",
          "type": "uint256"
        }
      ],
      "name": "Transfer",
      "type": "event"
    },
    {
      "inputs": [
        {
          "internalType": "address",
          "name": "owner",
          "type": "address"
        },
        {
          "internalType": "address",
          "name": "spender",
          "type": "address"
        }
      ],
      "name": "allowance",
      "outputs": [
        {
          "internalType": "uint256",
          "name": "",
          "type": "uint256"
        }
      ],
      "stateMutability": "view",
      "type": "function"
    },
    {
      "inputs": [
        {
          "internalType": "address",
          "name": "spender",
          "type": "address"
        },
        {
          "internalType": "uint256",
          "name": "value",
          "type": "uint256"
        }
      ],
      "name": "approve",
      "outputs": [
        {
          "internalType": "bool",
          "name": "",
          "type": "bool"
        }
      ],
      "stateMutability": "nonpayable",
      "type": "function"
    },
    {
      "inputs": [
        {
          "internalType": "address",
          "name": "account",
          "type": "address"
        }
      ],
      "name": "balanceOf",
      "outputs": [
        {
          "internalType": "uint256",
          "name": "",
          "type": "uint256"
        }
      ],
      "stateMutability": "view",
      "type": "function"
    },
    {
      "inputs": [],
      "name": "decimals",
      "outputs": [
        {
          "internalType": "uint8",
          "name": "",
          "type": "uint8"
        }
      ],
      "stateMutability": "view",
      "type": "function"
    },
    {
      "inputs": [
        {
          "internalType": "address",
          "name": "account",
          "type": "address"
        }
      ],
      "name": "getBalance",
      "outputs": [
        {
          "internalType": "uint256",
          "name": "",
          "type": "uint256"
        }
      ],
      "stateMutability": "view",
      "type": "function"
    },
    {
      "inputs": [],
      "name": "name",
      "outputs": [
        {
          "internalType": "string",
          "name": "",
          "type": "string"
        }
      ],
      "stateMutability": "view",
      "type": "function"
    },
    {
      "inputs": [],
      "name": "owner",
      "outputs": [
        {
          "internalType": "address",
          "name": "",
          "type": "address"
        }
      ],
      "stateMutability": "view",
      "type": "function"
    },
    {
      "inputs": [],
      "name": "renounceOwnership",
      "outputs": [],
      "stateMutability": "nonpayable",
      "type": "function"
    },
    {
      "inputs": [
        {
          "internalType": "address",
          "name": "recipient",
          "type": "address"
        },
        {
          "internalType": "uint256",
          "name": "amount",
          "type": "uint256"
        }
      ],
      "name": "secureTransfer",
      "outputs": [],
      "stateMutability": "nonpayable",
      "type": "function"
    },
    {
      "inputs": [],
      "name": "symbol",
      "outputs": [
        {
          "internalType": "string",
          "name": "",
          "type": "string"
        }
      ],
      "stateMutability": "view",
      "type": "function"
    },
    {
      "inputs": [],
      "name": "totalSupply",
      "outputs": [
        {
          "internalType": "uint256",
          "name": "",
          "type": "uint256"
        }
      ],
      "stateMutability": "view",
      "type": "function"
    },
    {
      "inputs": [
        {
          "internalType": "address",
          "name": "to",
          "type": "address"
        },
        {
          "internalType": "uint256",
          "name": "value",
          "type": "uint256"
        }
      ],
      "name": "transfer",
      "outputs": [
        {
          "internalType": "bool",
          "name": "",
          "type": "bool"
        }
      ],
      "stateMutability": "nonpayable",
      "type": "function"
    },
    {
      "inputs": [
        {
          "internalType": "address",
          "name": "from",
          "type": "address"
        },
        {
          "internalType": "address",
          "name": "to",
          "type": "address"
        },
        {
          "internalType": "uint256",
          "name": "value",
          "type": "uint256"
        }
      ],
      "name": "transferFrom",
      "outputs": [
        {
          "internalType": "bool",
          "name": "",
          "type": "bool"
        }
      ],
      "stateMutability": "nonpayable",
      "type": "function"
    },
    {
      "inputs": [
        {
          "internalType": "address",
          "name": "newOwner",
          "type": "address"
        }
      ],
      "name": "transferOwnership",
      "outputs": [],
      "stateMutability": "nonpayable",
      "type": "function"
    }
  ],
  "bytecode": "0x608060405234801561001057600080fd5b50604051611df3380380611df38339818101604052810190610032919061054a565b336040518060400160405280600d81526020017f5472616e73666572546f6b656e000000000000000000000000000000000000008152506040518060400160405280600381526020017f54544b000000000000000000000000000000000000000000000000000000000081525081600390816100ae91906107bd565b5080600490816100be91906107bd565b505050600073ffffffffffffffffffffffffffffffffffffffff168173ffffffffffffffffffffffffffffffffffffffff16036101335760006040517f1e4fbdf700000000000000000000000000000000000000000000000000000000815260040161012a91906108d0565b60405180910390fd5b6101428161019c60201b60201c565b5060008111610186576040517f08c379a000000000000000000000000000000000000000000000000000000000815260040161017d90610948565b60405180910390fd5b610196338261026260201b60201c565b50610a2c565b6000600560009054906101000a900473ffffffffffffffffffffffffffffffffffffffff16905081600560006101000a81548173ffffffffffffffffffffffffffffffffffffffff021916908373ffffffffffffffffffffffffffffffffffffffff1602179055508173ffffffffffffffffffffffffffffffffffffffff168173ffffffffffffffffffffffffffffffffffffffff167f8be0079c531659141344cd1fd0a4f28419497f9722a3daafe3b4186f6b6457e060405160405180910390a35050565b600073ffffffffffffffffffffffffffffffffffffffff168273ffffffffffffffffffffffffffffffffffffffff16036102d45760006040517fec442f050000000000000000000000000000000000000000000000000000000081526004016102cb91906108d0565b60405180910390fd5b6102e6600083836102ea60201b60201c565b5050565b600073ffffffffffffffffffffffffffffffffffffffff168373ffffffffffffffffffffffffffffffffffffffff160361033c5780600260008282546103309190610997565b9250508190555061040f565b60008060008573ffffffffffffffffffffffffffffffffffffffff1673ffffffffffffffffffffffffffffffffffffffff168152602001908152602001600020549050818110156103c8578381836040517fe450d38c0000000000000000000000000000000000000000000000000000000081526004016103bf939291906109da565b60405180910390fd5b8181036000808673ffffffffffffffffffffffffffffffffffffffff1673ffffffffffffffffffffffffffffffffffffffff16815260200190815260200160002081905550505b600073ffffffffffffffffffffffffffffffffffffffff168273ffffffffffffffffffffffffffffffffffffffff160361045857806002600082825403925050819055506104a5565b806000808473ffffffffffffffffffffffffffffffffffffffff1673ffffffffffffffffffffffffffffffffffffffff168152602001908152602001600020600082825401925050819055505b8173ffffffffffffffffffffffffffffffffffffffff168373ffffffffffffffffffffffffffffffffffffffff167fddf252ad1be2c89b69c2b068fc378daa952ba7f163c4a11628f55a4df523b3ef836040516105029190610a11565b60405180910390a3505050565b600080fd5b6000819050919050565b61052781610514565b811461053257600080fd5b50565b6000815190506105448161051e565b92915050565b6000602082840312156105605761055f61050f565b5b600061056e84828501610535565b91505092915050565b600081519050919050565b7f4e487b7100000000000000000000000000000000000000000000000000000000600052604160045260246000fd5b7f4e487b7100000000000000000000000000000000000000000000000000000000600052602260045260246000fd5b600060028204905060018216806105f857607f821691505b60208210810361060b5761060a6105b1565b5b50919050565b60008190508160005260206000209050919050565b60006020601f8301049050919050565b600082821b905092915050565b6000600883026106737fffffffffffffffffffffffffffffffffffffffffffffffffffffffffffffffff82610636565b61067d8683610636565b95508019841693508086168417925050509392505050565b6000819050919050565b60006106ba6106b56106b084610514565b610695565b610514565b9050919050565b6000819050919050565b6106d48361069f565b6106e86106e0826106c1565b848454610643565b825550505050565b600090565b6106fd6106f0565b6107088184846106cb565b505050565b5b8181101561072c576107216000826106f5565b60018101905061070e565b5050565b601f8211156107715761074281610611565b61074b84610626565b8101602085101561075a578190505b61076e61076685610626565b83018261070d565b50505b505050565b600082821c905092915050565b600061079460001984600802610776565b1980831691505092915050565b60006107ad8383610783565b9150826002028217905092915050565b6107c682610577565b67ffffffffffffffff8111156107df576107de610582565b5b6107e982546105e0565b6107f4828285610730565b600060209050601f8311600181146108275760008415610815578287015190505b61081f85826107a1565b865550610887565b601f19841661083586610611565b60005b8281101561085d57848901518255600182019150602085019450602081019050610838565b8683101561087a5784890151610876601f891682610783565b8355505b6001600288020188555050505b505050505050565b600073ffffffffffffffffffffffffffffffffffffffff82169050919050565b60006108ba8261088f565b9050919050565b6108ca816108af565b82525050565b60006020820190506108e560008301846108c1565b92915050565b600082825260208201905092915050565b7f496e697469616c20737570706c79206d75737420626520706f73697469766500600082015250565b6000610932601f836108eb565b915061093d826108fc565b602082019050919050565b6000602082019050818103600083015261096181610925565b9050919050565b7f4e487b7100000000000000000000000000000000000000000000000000000000600052601160045260246000fd5b60006109a282610514565b91506109ad83610514565b92508282019050808211156109c5576109c4610968565b5b92915050565b6109d481610514565b82525050565b60006060820190506109ef60008301866108c1565b6109fc60208301856109cb565b610a0960408301846109cb565b949350505050565b6000602082019050610a2660008301846109cb565b92915050565b6113b880610a3b6000396000f3fe608060405234801561001057600080fd5b50600436106100ea5760003560e01c80638da5cb5b1161008c578063d8d1f38f11610066578063d8d1f38f1461024f578063dd62ed3e1461026b578063f2fde38b1461029b578063f8b2cb4f146102b7576100ea565b80638da5cb5b146101e357806395d89b4114610201578063a9059cbb1461021f576100ea565b806323b872dd116100c857806323b872dd1461015b578063313ce5671461018b57806370a08231146101a9578063715018a6146101d9576100ea565b806306fdde03146100ef578063095ea7b31461010d57806318160ddd1461013d575b600080fd5b6100f76102e7565b6040516101049190610ec8565b60405180910390f35b61012760048036038101906101229190610f83565b610379565b6040516101349190610fde565b60405180910390f35b61014561039c565b6040516101529190611008565b60405180910390f35b61017560048036038101906101709190611023565b6103a6565b6040516101829190610fde565b60405180910390f35b6101936103d5565b6040516101a09190611092565b60405180910390f35b6101c360048036038101906101be91906110ad565b6103de565b6040516101d09190611008565b60405180910390f35b6101e1610426565b005b6101eb61043a565b6040516101f891906110e9565b60405180910390f35b610209610464565b6040516102169190610ec8565b60405180910390f35b61023960048036038101906102349190610f83565b6104f6565b6040516102469190610fde565b60405180910390f35b61026960048036038101906102649190610f83565b610519565b005b61028560048036038101906102809190611104565b61062d565b6040516102929190611008565b60405180910390f35b6102b560048036038101906102b091906110ad565b6106b4565b005b6102d160048036038101906102cc91906110ad565b61073a565b6040516102de9190611008565b60405180910390f35b6060600380546102f690611173565b80601f016020809104026020016040519081016040528092919081815260200182805461032290611173565b801561036f5780601f106103445761010080835404028352916020019161036f565b820191906000526020600020905b81548152906001019060200180831161035257829003601f168201915b5050505050905090565b60008061038461074c565b9050610391818585610754565b600191505092915050565b6000600254905090565b6000806103b161074c565b90506103be858285610766565b6103c98585856107fb565b60019150509392505050565b60006012905090565b60008060008373ffffffffffffffffffffffffffffffffffffffff1673ffffffffffffffffffffffffffffffffffffffff168152602001908152602001600020549050919050565b61042e6108ef565b6104386000610976565b565b6000600560009054906101000a900473ffffffffffffffffffffffffffffffffffffffff16905090565b60606004805461047390611173565b80601f016020809104026020016040519081016040528092919081815260200182805461049f90611173565b80156104ec5780601f106104c1576101008083540402835291602001916104ec565b820191906000526020600020905b8154815290600101906020018083116104cf57829003601f168201915b5050505050905090565b60008061050161074c565b905061050e8185856107fb565b600191505092915050565b6105216108ef565b600073ffffffffffffffffffffffffffffffffffffffff168273ffffffffffffffffffffffffffffffffffffffff1603610590576040517f08c379a0000000000000000000000000000000000000000000000000000000008152600401610587906111f0565b60405180910390fd5b600081116105d3576040517f08c379a00000000000000000000000000000000000000000000000000000000081526004016105ca9061125c565b60405180910390fd5b806105dd336103de565b101561061e576040517f08c379a0000000000000000000000000000000000000000000000000000000008152600401610615906112c8565b60405180910390fd5b6106293383836107fb565b5050565b6000600160008473ffffffffffffffffffffffffffffffffffffffff1673ffffffffffffffffffffffffffffffffffffffff16815260200190815260200160002060008373ffffffffffffffffffffffffffffffffffffffff1673ffffffffffffffffffffffffffffffffffffffff16815260200190815260200160002054905092915050565b6106bc6108ef565b600073ffffffffffffffffffffffffffffffffffffffff168173ffffffffffffffffffffffffffffffffffffffff160361072e5760006040517f1e4fbdf700000000000000000000000000000000000000000000000000000000815260040161072591906110e9565b60405180910390fd5b61073781610976565b50565b6000610745826103de565b9050919050565b600033905090565b6107618383836001610a3c565b505050565b6000610772848461062d565b90507fffffffffffffffffffffffffffffffffffffffffffffffffffffffffffffffff8110156107f557818110156107e5578281836040517ffb8f41b20000000000000000000000000000000000000000000000000000000081526004016107dc939291906112e8565b60405180910390fd5b6107f484848484036000610a3c565b5b50505050565b600073ffffffffffffffffffffffffffffffffffffffff168373ffffffffffffffffffffffffffffffffffffffff160361086d5760006040517f96c6fd1e00000000000000000000000000000000000000000000000000000000815260040161086491906110e9565b60405180910390fd5b600073ffffffffffffffffffffffffffffffffffffffff168273ffffffffffffffffffffffffffffffffffffffff16036108df5760006040517fec442f050000000000000000000000000000000000000000000000000000000081526004016108d691906110e9565b60405180910390fd5b6108ea838383610c13565b505050565b6108f761074c565b73ffffffffffffffffffffffffffffffffffffffff1661091561043a565b73ffffffffffffffffffffffffffffffffffffffff16146109745761093861074c565b6040517f118cdaa700000000000000000000000000000000000000000000000000000000815260040161096b91906110e9565b60405180910390fd5b565b6000600560009054906101000a900473ffffffffffffffffffffffffffffffffffffffff16905081600560006101000a81548173ffffffffffffffffffffffffffffffffffffffff021916908373ffffffffffffffffffffffffffffffffffffffff1602179055508173ffffffffffffffffffffffffffffffffffffffff168173ffffffffffffffffffffffffffffffffffffffff167f8be0079c531659141344cd1fd0a4f28419497f9722a3daafe3b4186f6b6457e060405160405180910390a35050565b600073ffffffffffffffffffffffffffffffffffffffff168473ffffffffffffffffffffffffffffffffffffffff1603610aae5760006040517fe602df05000000000000000000000000000000000000000000000000000000008152600401610aa591906110e9565b60405180910390fd5b600073ffffffffffffffffffffffffffffffffffffffff168373ffffffffffffffffffffffffffffffffffffffff1603610b205760006040517f94280d62000000000000000000000000000000000000000000000000000000008152600401610b1791906110e9565b60405180910390fd5b81600160008673ffffffffffffffffffffffffffffffffffffffff1673ffffffffffffffffffffffffffffffffffffffff16815260200190815260200160002060008573ffffffffffffffffffffffffffffffffffffffff1673ffffffffffffffffffffffffffffffffffffffff168152602001908152602001600020819055508015610c0d578273ffffffffffffffffffffffffffffffffffffffff168473ffffffffffffffffffffffffffffffffffffffff167f8c5be1e5ebec7d5bd14f71427d1e84f3dd0314c0f7b2291e5b200ac8c7c3b92584604051610c049190611008565b60405180910390a35b50505050565b600073ffffffffffffffffffffffffffffffffffffffff168373ffffffffffffffffffffffffffffffffffffffff1603610c65578060026000828254610c59919061134e565b92505081905550610d38565b60008060008573ffffffffffffffffffffffffffffffffffffffff1673ffffffffffffffffffffffffffffffffffffffff16815260200190815260200160002054905081811015610cf1578381836040517fe450d38c000000000000000000000000000000000000000000000000000000008152600401610ce8939291906112e8565b60405180910390fd5b8181036000808673ffffffffffffffffffffffffffffffffffffffff1673ffffffffffffffffffffffffffffffffffffffff16815260200190815260200160002081905550505b600073ffffffffffffffffffffffffffffffffffffffff168273ffffffffffffffffffffffffffffffffffffffff1603610d815780600260008282540392505081905550610dce565b806000808473ffffffffffffffffffffffffffffffffffffffff1673ffffffffffffffffffffffffffffffffffffffff168152602001908152602001600020600082825401925050819055505b8173ffffffffffffffffffffffffffffffffffffffff168373ffffffffffffffffffffffffffffffffffffffff167fddf252ad1be2c89b69c2b068fc378daa952ba7f163c4a11628f55a4df523b3ef83604051610e2b9190611008565b60405180910390a3505050565b600081519050919050565b600082825260208201905092915050565b60005b83811015610e72578082015181840152602081019050610e57565b60008484015250505050565b6000601f19601f8301169050919050565b6000610e9a82610e38565b610ea48185610e43565b9350610eb4818560208601610e54565b610ebd81610e7e565b840191505092915050565b60006020820190508181036000830152610ee28184610e8f565b905092915050565b600080fd5b600073ffffffffffffffffffffffffffffffffffffffff82169050919050565b6000610f1a82610eef565b9050919050565b610f2a81610f0f565b8114610f3557600080fd5b50565b600081359050610f4781610f21565b92915050565b6000819050919050565b610f6081610f4d565b8114610f6b57600080fd5b50565b600081359050610f7d81610f57565b92915050565b60008060408385031215610f9a57610f99610eea565b5b6000610fa885828601610f38565b9250506020610fb985828601610f6e565b9150509250929050565b60008115159050919050565b610fd881610fc3565b82525050565b6000602082019050610ff36000830184610fcf565b92915050565b61100281610f4d565b82525050565b600060208201905061101d6000830184610ff9565b92915050565b60008060006060848603121561103c5761103b610eea565b5b600061104a86828701610f38565b935050602061105b86828701610f38565b925050604061106c86828701610f6e565b9150509250925092565b600060ff82169050919050565b61108c81611076565b82525050565b60006020820190506110a76000830184611083565b92915050565b6000602082840312156110c3576110c2610eea565b5b60006110d184828501610f38565b91505092915050565b6110e381610f0f565b82525050565b60006020820190506110fe60008301846110da565b92915050565b6000806040838503121561111b5761111a610eea565b5b600061112985828601610f38565b925050602061113a85828601610f38565b9150509250929050565b7f4e487b7100000000000000000000000000000000000000000000000000000000600052602260045260246000fd5b6000600282049050600182168061118b57607f821691505b60208210810361119e5761119d611144565b5b50919050565b7f496e76616c696420726563697069656e74206164647265737300000000000000600082015250565b60006111da601983610e43565b91506111e5826111a4565b602082019050919050565b60006020820190508181036000830152611209816111cd565b9050919050565b7f416d6f756e74206d75737420626520706f736974697665000000000000000000600082015250565b6000611246601783610e43565b915061125182611210565b602082019050919050565b6000602082019050818103600083015261127581611239565b9050919050565b7f496e73756666696369656e742062616c616e6365000000000000000000000000600082015250565b60006112b2601483610e43565b91506112bd8261127c565b602082019050919050565b600060208201905081810360008301526112e1816112a5565b9050919050565b60006060820190506112fd60008301866110da565b61130a6020830185610ff9565b6113176040830184610ff9565b949350505050565b7f4e487b7100000000000000000000000000000000000000000000000000000000600052601160045260246000fd5b600061135982610f4d565b915061136483610f4d565b925082820190508082111561137c5761137b61131f565b5b9291505056fea2646970667358221220c5ecd427bc371f45158a4e935c212c9f40da6687bd1e0606a08d787c6a3d704964736f6c634300081c0033",
  "linkReferences": {},
  "deployedLinkReferences": {}
}