{
  "_format": "hh-sol-artifact-1",
  "contractName": "Mapp",
  "sourceName": "contracts/Mappin.sol",
  "abi": [
    {
      "inputs": [
        {
          "internalType": "uint256",
          "name": "_key",
          "type": "uint256"
        }
      ],
      "name": "getter",
      "outputs": [
        {
          "internalType": "string",
          "name": "",
          "type": "string"
        }
      ],
      "stateMutability": "view",
      "type": "function"
    },
    {
      "inputs": [
        {
          "internalType": "uint256",
          "name": "",
          "type": "uint256"
        }
      ],
      "name": "m1",
      "outputs": [
        {
          "internalType": "string",
          "name": "",
          "type": "string"
        }
      ],
      "stateMutability": "view",
      "type": "function"
    },
    {
      "inputs": [
        {
          "internalType": "uint256",
          "name": "_key",
          "type": "uint256"
        },
        {
          "internalType": "string",
          "name": "_val",
          "type": "string"
        }
      ],
      "name": "setter",
      "outputs": [],
      "stateMutability": "nonpayable",
      "type": "function"
    }
  ],
  "bytecode": "0x6080604052348015600f57600080fd5b506107f88061001f6000396000f3fe608060405234801561001057600080fd5b50600436106100415760003560e01c80632ae426861461004657806394cad55d14610076578063bcb131c9146100a6575b600080fd5b610060600480360381019061005b9190610274565b6100c2565b60405161006d9190610331565b60405180910390f35b610090600480360381019061008b9190610274565b610162565b60405161009d9190610331565b60405180910390f35b6100c060048036038101906100bb9190610488565b610206565b005b600060205280600052604060002060009150905080546100e190610513565b80601f016020809104026020016040519081016040528092919081815260200182805461010d90610513565b801561015a5780601f1061012f5761010080835404028352916020019161015a565b820191906000526020600020905b81548152906001019060200180831161013d57829003601f168201915b505050505081565b6060600080838152602001908152602001600020805461018190610513565b80601f01602080910402602001604051908101604052809291908181526020018280546101ad90610513565b80156101fa5780601f106101cf576101008083540402835291602001916101fa565b820191906000526020600020905b8154815290600101906020018083116101dd57829003601f168201915b50505050509050919050565b80600080848152602001908152602001600020908161022591906106f0565b505050565b6000604051905090565b600080fd5b600080fd5b6000819050919050565b6102518161023e565b811461025c57600080fd5b50565b60008135905061026e81610248565b92915050565b60006020828403121561028a57610289610234565b5b60006102988482850161025f565b91505092915050565b600081519050919050565b600082825260208201905092915050565b60005b838110156102db5780820151818401526020810190506102c0565b60008484015250505050565b6000601f19601f8301169050919050565b6000610303826102a1565b61030d81856102ac565b935061031d8185602086016102bd565b610326816102e7565b840191505092915050565b6000602082019050818103600083015261034b81846102f8565b905092915050565b600080fd5b600080fd5b7f4e487b7100000000000000000000000000000000000000000000000000000000600052604160045260246000fd5b610395826102e7565b810181811067ffffffffffffffff821117156103b4576103b361035d565b5b80604052505050565b60006103c761022a565b90506103d3828261038c565b919050565b600067ffffffffffffffff8211156103f3576103f261035d565b5b6103fc826102e7565b9050602081019050919050565b82818337600083830152505050565b600061042b610426846103d8565b6103bd565b90508281526020810184848401111561044757610446610358565b5b610452848285610409565b509392505050565b600082601f83011261046f5761046e610353565b5b813561047f848260208601610418565b91505092915050565b6000806040838503121561049f5761049e610234565b5b60006104ad8582860161025f565b925050602083013567ffffffffffffffff8111156104ce576104cd610239565b5b6104da8582860161045a565b9150509250929050565b7f4e487b7100000000000000000000000000000000000000000000000000000000600052602260045260246000fd5b6000600282049050600182168061052b57607f821691505b60208210810361053e5761053d6104e4565b5b50919050565b60008190508160005260206000209050919050565b60006020601f8301049050919050565b600082821b905092915050565b6000600883026105a67fffffffffffffffffffffffffffffffffffffffffffffffffffffffffffffffff82610569565b6105b08683610569565b95508019841693508086168417925050509392505050565b6000819050919050565b60006105ed6105e86105e38461023e565b6105c8565b61023e565b9050919050565b6000819050919050565b610607836105d2565b61061b610613826105f4565b848454610576565b825550505050565b600090565b610630610623565b61063b8184846105fe565b505050565b5b8181101561065f57610654600082610628565b600181019050610641565b5050565b601f8211156106a45761067581610544565b61067e84610559565b8101602085101561068d578190505b6106a161069985610559565b830182610640565b50505b505050565b600082821c905092915050565b60006106c7600019846008026106a9565b1980831691505092915050565b60006106e083836106b6565b9150826002028217905092915050565b6106f9826102a1565b67ffffffffffffffff8111156107125761071161035d565b5b61071c8254610513565b610727828285610663565b600060209050601f83116001811461075a5760008415610748578287015190505b61075285826106d4565b8655506107ba565b601f19841661076886610544565b60005b828110156107905784890151825560018201915060208501945060208101905061076b565b868310156107ad57848901516107a9601f8916826106b6565b8355505b6001600288020188555050505b50505050505056fea26469706673582212201ffd52b5fa6578eb49d17c59abc27f3f0167c38eaeb285cd2f57d59a8dc8b38664736f6c634300081c0033",
  "linkReferences": {},
  "deployedLinkReferences": {}
}